{
  "transactions": [
    {
      "hash": "0x7385d3b086b257a539105a2f9f150fa83686f146e66213352cc897b5f51b0fc0",
      "transactionType": "CALL",
      "contractName": null,
      "contractAddress": "0x88966d61817b66de6882bca42841ceb870055bbd",
      "function": "mintNft(string)",
      "arguments": [
        "\"https://d7sk5v06qfk79.cloudfront.net/jrnyers-metadata/762\""
      ],
      "transaction": {
        "from": "0x8042a7936f5d02f0f85d064029c3ae3f9fbb1b98",
        "to": "0x88966d61817b66de6882bca42841ceb870055bbd",
        "gas": "0x35bc7",
        "value": "0x0",
        "input": "0xda86f4a90000000000000000000000000000000000000000000000000000000000000020000000000000000000000000000000000000000000000000000000000000003968747470733a2f2f6437736b3576303671666b37392e636c6f756466726f6e742e6e65742f6a726e796572732d6d657461646174612f37363200000000000000",
        "nonce": "0x8",
        "chainId": "0xaa36a7"
      },
      "additionalContracts": [],
      "isFixedGasLimit": false
    }
  ],
  "receipts": [
    {
      "status": "0x1",
      "cumulativeGasUsed": "0x4dc801",
      "logs": [
        {
          "address": "0x88966d61817b66de6882bca42841ceb870055bbd",
          "topics": [
            "0xddf252ad1be2c89b69c2b068fc378daa952ba7f163c4a11628f55a4df523b3ef",
            "0x0000000000000000000000000000000000000000000000000000000000000000",
            "0x0000000000000000000000008042a7936f5d02f0f85d064029c3ae3f9fbb1b98",
            "0x0000000000000000000000000000000000000000000000000000000000000000"
          ],
          "data": "0x",
          "blockHash": "0xa45ce79c8ef730f2ac6dbd7fad146c0876b7820a647ef686c31b3550b1f2185f",
          "blockNumber": "0x6438a1",
          "transactionHash": "0x7385d3b086b257a539105a2f9f150fa83686f146e66213352cc897b5f51b0fc0",
          "transactionIndex": "0x16",
          "logIndex": "0x5f",
          "removed": false
        }
      ],
      "logsBloom": "0x00000000000000000000000000000000000000000000000000000000000000000000000000000008000000000000000000000000020000000000000400000000000000000000000000000008000000000000000000000000000000000000000000000000020000000000000000000800000000000000000000000010000000000000000000000000000000000000000000000000000000000000000000000000000000000000000000000000000000000000000000000040000000000000000000000002000000000000000000000000000000000000000000000000000020000000000000000000000000000000004000000000000000000000000000000100",
      "type": "0x2",
      "transactionHash": "0x7385d3b086b257a539105a2f9f150fa83686f146e66213352cc897b5f51b0fc0",
      "transactionIndex": "0x16",
      "blockHash": "0xa45ce79c8ef730f2ac6dbd7fad146c0876b7820a647ef686c31b3550b1f2185f",
      "blockNumber": "0x6438a1",
      "gasUsed": "0x26e77",
      "effectiveGasPrice": "0x2103278b8",
      "from": "0x8042a7936f5d02f0f85d064029c3ae3f9fbb1b98",
      "to": "0x88966d61817b66de6882bca42841ceb870055bbd",
      "contractAddress": null
    }
  ],
  "libraries": [],
  "pending": [],
  "returns": {},
  "timestamp": 1724583037,
  "chain": 11155111,
  "commit": "beee770"
}